{
  "contractName": "BookMarketPlace",
  "abi": [
    {
      "anonymous": false,
      "inputs": [
        {
          "indexed": false,
          "internalType": "string",
          "name": "bookName",
          "type": "string"
        },
        {
          "indexed": false,
          "internalType": "uint256",
          "name": "price",
          "type": "uint256"
        },
        {
          "indexed": false,
          "internalType": "uint256",
          "name": "id",
          "type": "uint256"
        },
        {
          "indexed": false,
          "internalType": "address",
          "name": "owner",
          "type": "address"
        }
      ],
      "name": "BookListed",
      "type": "event"
    },
    {
      "anonymous": false,
      "inputs": [
        {
          "indexed": false,
          "internalType": "string",
          "name": "bookName",
          "type": "string"
        },
        {
          "indexed": false,
          "internalType": "uint256",
          "name": "soldAt",
          "type": "uint256"
        },
        {
          "indexed": false,
          "internalType": "address",
          "name": "by",
          "type": "address"
        }
      ],
      "name": "BookPurchased",
      "type": "event"
    },
    {
      "anonymous": false,
      "inputs": [
        {
          "indexed": false,
          "internalType": "string",
          "name": "bookName",
          "type": "string"
        },
        {
          "indexed": false,
          "internalType": "uint256",
          "name": "offerAmount",
          "type": "uint256"
        },
        {
          "indexed": false,
          "internalType": "address",
          "name": "by",
          "type": "address"
        }
      ],
      "name": "OfferReceived",
      "type": "event"
    },
    {
      "inputs": [
        {
          "internalType": "uint256",
          "name": "",
          "type": "uint256"
        }
      ],
      "name": "bookById",
      "outputs": [
        {
          "internalType": "string",
          "name": "name",
          "type": "string"
        },
        {
          "internalType": "uint256",
          "name": "price",
          "type": "uint256"
        },
        {
          "internalType": "uint256",
          "name": "id",
          "type": "uint256"
        },
        {
          "internalType": "address",
          "name": "owner",
          "type": "address"
        }
      ],
      "stateMutability": "view",
      "type": "function",
      "constant": true
    },
    {
      "inputs": [
        {
          "internalType": "string",
          "name": "_name",
          "type": "string"
        },
        {
          "internalType": "uint256",
          "name": "_price",
          "type": "uint256"
        }
      ],
      "name": "sellBook",
      "outputs": [
        {
          "internalType": "bool",
          "name": "success",
          "type": "bool"
        }
      ],
      "stateMutability": "nonpayable",
      "type": "function"
    },
    {
      "inputs": [
        {
          "internalType": "uint256",
          "name": "_id",
          "type": "uint256"
        },
        {
          "internalType": "uint256",
          "name": "_offerAmount",
          "type": "uint256"
        }
      ],
      "name": "buyRequest",
      "outputs": [
        {
          "internalType": "bool",
          "name": "success",
          "type": "bool"
        }
      ],
      "stateMutability": "nonpayable",
      "type": "function"
    },
    {
      "inputs": [
        {
          "internalType": "uint256",
          "name": "_id",
          "type": "uint256"
        }
      ],
      "name": "checkRequests",
      "outputs": [
        {
          "components": [
            {
              "internalType": "address",
              "name": "requester",
              "type": "address"
            },
            {
              "internalType": "uint256",
              "name": "offerAmount",
              "type": "uint256"
            }
          ],
          "internalType": "struct BookMarketPlace.Buyer[]",
          "name": "",
          "type": "tuple[]"
        }
      ],
      "stateMutability": "view",
      "type": "function",
      "constant": true
    }
  ],
  "bytecode": "0x6080604052600060025534801561001557600080fd5b50610efa806100256000396000f3fe608060405234801561001057600080fd5b506004361061004c5760003560e01c80632785d88e146100515780635e644eec14610081578063852f7c10146100b1578063e8d91ff6146100e4575b600080fd5b61006b6004803603810190610066919061093e565b610114565b6040516100789190610b82565b60405180910390f35b61009b60048036038101906100969190610992565b610249565b6040516100a89190610b60565b60405180910390f35b6100cb60048036038101906100c69190610992565b61031b565b6040516100db9493929190610bdb565b60405180910390f35b6100fe60048036038101906100f991906109bb565b6103f3565b60405161010b9190610b82565b60405180910390f35b600061012c600160025461075e90919063ffffffff16565b6002819055506000604051806080016040528085815260200184815260200160025481526020013373ffffffffffffffffffffffffffffffffffffffff16815250905080600080600254815260200190815260200160002060008201518160000190805190602001906101a0929190610774565b50602082015181600101556040820151816002015560608201518160030160006101000a81548173ffffffffffffffffffffffffffffffffffffffff021916908373ffffffffffffffffffffffffffffffffffffffff1602179055509050507f97ae3b4a785b9cb4233b72f753c4476d8a675101be2bef204d2ade5fe4d37f158484600254336040516102369493929190610bdb565b60405180910390a1600191505092915050565b606060016000838152602001908152602001600020805480602002602001604051908101604052809291908181526020016000905b8282101561031057838290600052602060002090600202016040518060400160405290816000820160009054906101000a900473ffffffffffffffffffffffffffffffffffffffff1673ffffffffffffffffffffffffffffffffffffffff1673ffffffffffffffffffffffffffffffffffffffff1681526020016001820154815250508152602001906001019061027e565b505050509050919050565b600060205280600052604060002060009150905080600001805461033e90610ddd565b80601f016020809104026020016040519081016040528092919081815260200182805461036a90610ddd565b80156103b75780601f1061038c576101008083540402835291602001916103b7565b820191906000526020600020905b81548152906001019060200180831161039a57829003601f168201915b5050505050908060010154908060020154908060030160009054906101000a900473ffffffffffffffffffffffffffffffffffffffff16905084565b60008060008085815260200190815260200160002060405180608001604052908160008201805461042390610ddd565b80601f016020809104026020016040519081016040528092919081815260200182805461044f90610ddd565b801561049c5780601f106104715761010080835404028352916020019161049c565b820191906000526020600020905b81548152906001019060200180831161047f57829003601f168201915b5050505050815260200160018201548152602001600282015481526020016003820160009054906101000a900473ffffffffffffffffffffffffffffffffffffffff1673ffffffffffffffffffffffffffffffffffffffff1673ffffffffffffffffffffffffffffffffffffffff16815250509050600073ffffffffffffffffffffffffffffffffffffffff16816060015173ffffffffffffffffffffffffffffffffffffffff161415610585576040517f08c379a000000000000000000000000000000000000000000000000000000000815260040161057c90610c27565b60405180910390fd5b80602001518310610653576001600085815260200190815260200160002060006105af91906107fa565b600080858152602001908152602001600020600080820160006105d2919061081e565b600182016000905560028201600090556003820160006101000a81549073ffffffffffffffffffffffffffffffffffffffff021916905550507fb5a3e0653e8a0517de3a4c6618d4f17cf481b704bde87b7ef34f00c4b8d352a38160000151843360405161064293929190610b9d565b60405180910390a160019150610757565b600060405180604001604052803373ffffffffffffffffffffffffffffffffffffffff1681526020018581525090506001600086815260200190815260200160002081908060018154018082558091505060019003906000526020600020906002020160009091909190915060008201518160000160006101000a81548173ffffffffffffffffffffffffffffffffffffffff021916908373ffffffffffffffffffffffffffffffffffffffff1602179055506020820151816001015550507f7d6a30fd2fb29a3c7d532ff32013fa93c1a1c2ecafd50cf944f2241d780cae0c8260000151853360405161074993929190610b9d565b60405180910390a160019250505b5092915050565b6000818361076c9190610cfd565b905092915050565b82805461078090610ddd565b90600052602060002090601f0160209004810192826107a257600085556107e9565b82601f106107bb57805160ff19168380011785556107e9565b828001600101855582156107e9579182015b828111156107e85782518255916020019190600101906107cd565b5b5090506107f6919061085e565b5090565b508054600082556002029060005260206000209081019061081b919061087b565b50565b50805461082a90610ddd565b6000825580601f1061083c575061085b565b601f01602090049060005260206000209081019061085a919061085e565b5b50565b5b8082111561087757600081600090555060010161085f565b5090565b5b808211156108bd57600080820160006101000a81549073ffffffffffffffffffffffffffffffffffffffff021916905560018201600090555060020161087c565b5090565b60006108d46108cf84610c78565b610c47565b9050828152602081018484840111156108ec57600080fd5b6108f7848285610d9b565b509392505050565b600082601f83011261091057600080fd5b81356109208482602086016108c1565b91505092915050565b60008135905061093881610ead565b92915050565b6000806040838503121561095157600080fd5b600083013567ffffffffffffffff81111561096b57600080fd5b610977858286016108ff565b925050602061098885828601610929565b9150509250929050565b6000602082840312156109a457600080fd5b60006109b284828501610929565b91505092915050565b600080604083850312156109ce57600080fd5b60006109dc85828601610929565b92505060206109ed85828601610929565b9150509250929050565b6000610a038383610b13565b60408301905092915050565b610a1881610d53565b82525050565b610a2781610d53565b82525050565b6000610a3882610cb8565b610a428185610cdb565b9350610a4d83610ca8565b8060005b83811015610a7e578151610a6588826109f7565b9750610a7083610cce565b925050600181019050610a51565b5085935050505092915050565b610a9481610d65565b82525050565b6000610aa582610cc3565b610aaf8185610cec565b9350610abf818560208601610daa565b610ac881610e9c565b840191505092915050565b6000610ae0601b83610cec565b91507f627579526571756573743a20626f6f6b206e6f74206c697374656400000000006000830152602082019050919050565b604082016000820151610b296000850182610a0f565b506020820151610b3c6020850182610b42565b50505050565b610b4b81610d91565b82525050565b610b5a81610d91565b82525050565b60006020820190508181036000830152610b7a8184610a2d565b905092915050565b6000602082019050610b976000830184610a8b565b92915050565b60006060820190508181036000830152610bb78186610a9a565b9050610bc66020830185610b51565b610bd36040830184610a1e565b949350505050565b60006080820190508181036000830152610bf58187610a9a565b9050610c046020830186610b51565b610c116040830185610b51565b610c1e6060830184610a1e565b95945050505050565b60006020820190508181036000830152610c4081610ad3565b9050919050565b6000604051905081810181811067ffffffffffffffff82111715610c6e57610c6d610e6d565b5b8060405250919050565b600067ffffffffffffffff821115610c9357610c92610e6d565b5b601f19601f8301169050602081019050919050565b6000819050602082019050919050565b600081519050919050565b600081519050919050565b6000602082019050919050565b600082825260208201905092915050565b600082825260208201905092915050565b6000610d0882610d91565b9150610d1383610d91565b9250827fffffffffffffffffffffffffffffffffffffffffffffffffffffffffffffffff03821115610d4857610d47610e0f565b5b828201905092915050565b6000610d5e82610d71565b9050919050565b60008115159050919050565b600073ffffffffffffffffffffffffffffffffffffffff82169050919050565b6000819050919050565b82818337600083830152505050565b60005b83811015610dc8578082015181840152602081019050610dad565b83811115610dd7576000848401525b50505050565b60006002820490506001821680610df557607f821691505b60208210811415610e0957610e08610e3e565b5b50919050565b7f4e487b7100000000000000000000000000000000000000000000000000000000600052601160045260246000fd5b7f4e487b7100000000000000000000000000000000000000000000000000000000600052602260045260246000fd5b7f4e487b7100000000000000000000000000000000000000000000000000000000600052604160045260246000fd5b6000601f19601f8301169050919050565b610eb681610d91565b8114610ec157600080fd5b5056fea26469706673582212205cf7d9df97ffd09e148aab0a5ea88118d8b7b531571d806073fb5d68894c0fa764736f6c63430008000033",
  "immutableReferences": {},
  "source": "//\"SPDX-License-Identifier: UNLICENSED\"\r\npragma solidity ^0.8.0;\r\npragma experimental ABIEncoderV2;\r\nimport \"./SafeMath.sol\";\r\ncontract BookMarketPlace {\r\n    using SafeMath for uint256;\r\n       // state\r\n       \r\n       mapping(uint256 => Book) public bookById;\r\n       mapping(uint256 => Buyer[]) private RequestsById;\r\n       \r\n       // book represent by id \r\n       uint256 private bookId = 0;\r\n       \r\n       // book details\r\n       struct Book {\r\n           string name;\r\n           uint256 price;\r\n           uint256 id;\r\n           address owner;\r\n       }\r\n       \r\n       // buyer details\r\n       struct Buyer {\r\n           address requester;\r\n           uint256 offerAmount;\r\n       }\r\n       \r\n       // events\r\n       event BookListed(string bookName,uint256 price,uint256 id,address owner);\r\n       event BookPurchased(string bookName,uint256 soldAt,address by);\r\n       event OfferReceived(string bookName, uint256 offerAmount, address by);\r\n       \r\n       // @notice function to list book on Marketplace\r\n       // @param1: _name: set book name\r\n       // @param2: _price: set book price\r\n       function sellBook(string memory _name, uint256 _price) public returns(bool success){\r\n           \r\n           bookId = bookId.add(1);\r\n           Book memory obj = Book(_name, _price, bookId, msg.sender);\r\n           bookById[bookId] = obj;\r\n           emit BookListed(_name, _price, bookId, msg.sender);\r\n           \r\n           success = true;\r\n       }\r\n       \r\n       // @notice buyer submit request with desired offer, \r\n       // If offer matches with seller demand price, new owner will be buyer \r\n       // @param1: _id: book id to request on\r\n       // param2: _offerAmount: set desired offer\r\n       function buyRequest(uint256 _id, uint256 _offerAmount) public returns(bool success){\r\n          // pointer to book \r\n          Book memory book = bookById[_id];\r\n          \r\n          // book should be on sell \r\n          require(book.owner != address(0),\"buyRequest: book not listed\");\r\n          \r\n           if(_offerAmount >= book.price){\r\n               // check If buyer is serious\r\n               \r\n               //when function is payable \r\n               //require(msg.value >= book.price, \"buyRequest: amount should be valid\");\r\n               //payable(book.owner).transfer(msg.value); //\r\n               \r\n               //delete requests;\r\n               delete RequestsById[_id];\r\n               \r\n               // delete book from listing\r\n               delete bookById[_id];\r\n               \r\n               emit BookPurchased(book.name,_offerAmount, msg.sender);\r\n               success = true;\r\n           }\r\n           else {\r\n            Buyer memory obj = Buyer(msg.sender, _offerAmount);\r\n            RequestsById[_id].push(obj);\r\n            emit OfferReceived(book.name, _offerAmount, msg.sender);\r\n            success = true;\r\n           }\r\n           \r\n       }\r\n       function checkRequests(uint256 _id) public view returns(Buyer[] memory) {\r\n           return RequestsById[_id];\r\n       }\r\n       \r\n}",
  "sourcePath": "E:\\decentralize-book-store\\contracts\\BookMarketplace.sol",
  "compiler": {
    "name": "solc",
    "version": "0.8.0+commit.c7dfd78e.Emscripten.clang"
  },
  "schemaVersion": "3.4.3",
  "updatedAt": "2021-10-02T15:16:24.157Z",
  "networkType": "ethereum",
  "devdoc": {
    "kind": "dev",
    "methods": {},
    "version": 1
  },
  "userdoc": {
    "kind": "user",
    "methods": {},
    "version": 1
  }
}